:020000040800F2
:1000000000A00020DD1100082512000825120008BC
:100010002512000825120008251200080000000023
:100020000000000000000000000000002512000891
:100030002512000800000000251200082512000803
:1000400000000000000000000000000000000000B0
:1000500000000000000000000000000000000000A0
:100060000000000000000000000000000000000090
:100070000000000000000000000000000000000080
:100080000000000000000000000000000000000070
:100090000000000000000000000000000000000060
:1000A0000000000000000000000000000000000050
:1000B0000000000000000000000000000000000040
:1000C0000000000000000000000000000000000030
:1000D0000000000000000000000000000000000020
:1000E0000000000000000000000000000000000010
:1000F0000000000000000000000000000000000000
:1001000000000000000000000000000000000000EF
:1001100000000000000000000000000000000000DF
:1001200000000000000000000000000000000000CF
:1001300000000000000000000000000000000000BF
:1001400000000000000000000000000000000000AF
:10015000000000000000000000000000000000009F
:10016000000000000000000000000000000000008F
:10017000000000000000000000000000000000007F
:08018000000000000000000077
:100188000348044B834202D0034B03B1184770471E
:100198000000002000000020000000000548064B79
:1001A8001B1AD90F01EBA301491002D0034B03B16D
:1001B80018477047000000200000002000000000E1
:1001C80010B5064C237843B9FFF7DAFF044B13B197
:1001D8000448AFF300800123237010BD7C01002088
:1001E800000000007012000808B5054B1BB1054956
:1001F8000548AFF30080BDE80840FFF7CFBF00BF58
:1002080000000000800100207012000800207047E4
:1002180010B5044600F0F8F900F0FDF92246102167
:10022800722000F095F8002010BD002070470000F3
:1002380008B500F047F900F085F900F0C1F900F0C1
:1002480071F8094A1021702000F068F8074A102157
:100258006B2000F063F8064A0021782000F05EF871
:1002680000F0D0F8FCE700BF1902000815020008EA
:100278003302000801207047F0B500254F1C854265
:1002880001DB002021E017F8154011F81530A4F122
:100298003006F6B2092E0CD81670A3F13004E4B279
:1002A800092C15D8137843EA041313700135013269
:1002B800E5E7A4F14106052E02D8373C1470ECE7B7
:1002C800A4F16106052E01D90120F0BD573CF5E7E0
:1002D800A3F14104052C02D8A3F13704E2E7A3F106
:1002E8006104052CF0D81478573B44EA0313DCE783
:1002F80070B5094E34680F2C0BDCFF2909D806EBC2
:100308000415C5E90212013428712B7434600020E9
:1003180070BD0120FCE700BF000000200023FFF7AC
:10032800E7BF000008B5074A00217620FFF7F6FF6F
:10033800054A7720FFF7F2FFBDE80840034A792015
:10034800FFF7ECBF7D020008BD0300089903000811
:10035800F8B514460E4600F07FF90C4F651EC4F13F
:10036800010463199E4204DCBDE8F8400A2000F04D
:1003780073B915F8013F1B09F85C00F06DF92B788B
:1003880003F00F03F85C00F067F9EAE78812000849
:1003980007B5074B0DF107021B688DF807300121DF
:1003A8007220FFF7D5FF002003B05DF804FB00BF03
:1003B8000000002070B5124C21688CB0CDB200202E
:1003C800C3B2AB4200F1010009DB01EB41016A460F
:1003D800C9B27220FFF7BCFF00200CB070BD03EB60
:1003E8004302303204EB03136A441E7902F8306C7E
:1003F8009E681B7C02F82F6C02F82E3CE0E700BFD9
:10040800000000202DE9F0412D4DADF5427D00F0B2
:1004180009F92A46002352F8041B994240DC3BD0D4
:1004280005EB03141E01237CDB0713D500238DF88D
:10043800083000F0F7F88DF8080100F0F3F802AA88
:100448008DF8090142A90120FFF716FF20BB9DF88E
:100458000830A36042AF002405EB0608D8F808303E
:10046800B4EB430F22D300F0DDF80A2801D00D28A1
:1004780012D1354402AAAC6842A92046FFF7FCFE17
:1004880050B9E1B2EB6802A8984701AA8DF80400B8
:1004980001217A20FFF75CFF0DF5427DBDE8F08170
:1004A8001C01A45C8442BBD00133B6E700F0BAF863
:1004B8000A28F1D00D28EFD007F8010B0134CDE759
:1004C8000000002070B596B0002403264FF4A02346
:1004D8000CA80125CDE90C631094149400F0D4F80D
:1004E8000F23214602A8CDE90235CDE9044406943C
:1004F80000F010FB114B5A6942F400225A615B6903
:10050800CDE9094603F400230D4C0193019B07A98B
:100518004FF4C0432046CDE9073500F09BFB2A463F
:1005280020464FF4005100F053FC2A464FF4804116
:10053800204600F04DFC16B070BD00BF0010024010
:100548000008004810B54FF4C06288B00223CDE916
:10055800032301210323CDE90513164C0723079331
:10056800636943F400336361636903F400330193FF
:1005780003A94FF09040019B00F06CFB0E48DFF898
:100588003CC04FF41643C0E900C30023C0E902335E
:10059800036183610C234361A36943F48043A3612E
:1005A800A36903F480430293029B00F027FD08B07F
:1005B80010BD00BF001002400401002000380140B7
:1005C800104B30B55A6942F400325A615B6987B002
:1005D80003F400330093009B4FF480540123CDE9CA
:1005E80001430025032301A94FF09040CDE90353AF
:1005F80000F030FB2A4621464FF0904000F0E8FB1F
:1006080007B030BD0010024001224FF480514FF076
:10061800904000F0DDBB00224FF480514FF0904035
:1006280000F0D6BB37B50A4D0A4C41F28833012297
:100638000DF10701284600F061FD18B99DF8070083
:1006480003B030BD236A43F008032362EDE700BF1F
:10065800040100200038014007B541F288338DF8C5
:10066800070001220DF10701024800F0F1FC03B078
:100678005DF804FB04010020024B1868421C1A6054
:10068800704700BF7401002003682DE9F743D907BC
:10069800044610D423689A077ED423681E0700F105
:1006A800E78023685D0700F12A81E269002A40F0AB
:1006B800AD8100201FE0AE494B6803F00C03042B0A
:1006C80007D04B6803F00C03082B17D14B68DB03EA
:1006D80014D54FF4003393FAA3F2096893FAA3F3FD
:1006E8000122B3FA83F302FA03F30B42D2D0636810
:1006F800002BCFD1012003B0BDE8F0836268B2F5CA
:10070800803F22D10B6843F480330B60CB6AA0682A
:1007180023F00F030343CB623AB3FFF7ADFF4FF467
:1007280000360546012796FAA6F30A6896FAA6F354
:10073800B3FA83F307FA03F31342ABD1FFF79CFF35
:10074800401B6428EFD90320D5E70B6832B923F49E
:1007580080330B600B6823F48023D6E7B2F5A02F13
:10076800F5D143F480230B60CCE7FFF785FF4FF406
:1007780000360546012796FAA6F30A6896FAA6F304
:10078800B3FA83F307FA03F3134283D0FFF774FF36
:10079800401B6428EFD9D6E775494B6813F00C0F56
:1007A80007D04B6803F00C03082B1FD14B68DF03FD
:1007B8001CD4022393FAA3F2086893FAA3F3012244
:1007C800B3FA83F302FA03F3034202D02369934294
:1007D80090D10868F82292FAA2F26369B2FA82F21A
:1007E800934020F0F80213430B6056E72269012575
:1007F800F2B195FAA5F3B3FA83F303F1845303F541
:1008080084139B0002271D60FFF736FF064697FA00
:10081800A7F30A6897FAA7F3B3FA83F305FA03F381
:100828001342D6D1FFF728FF801B0228EFD98AE7A9
:1008380095FAA5F3B3FA83F303F1845303F584130C
:100848009B0002271A60FFF717FF064697FAA7F3DF
:100858000A6897FAA7F3B3FA83F305FA03F3134286
:100868003FF41BAFFFF708FF801B0228EED96AE7A9
:10087800A2693F4D3F48012102B391FAA1F3B3FAAF
:1008880083F303449B0002261960FFF7F5FE074631
:1008980096FAA6F396FAA6F396FAA6F36A6A96FA71
:1008A800A6F3B3FA83F301FA03F313427FF4F9AE24
:1008B800FFF7E2FEC01B0228EAD944E791FAA1F348
:1008C800B3FA83F303449B0002261A60FFF7D4FEB1
:1008D800074696FAA6F396FAA6F396FAA6F36A6A74
:1008E80096FAA6F3B3FA83F301FA03F313423FF43B
:1008F800D8AEFFF7C1FEC01B0228EAD923E71C497E
:10090800CB69D80031D4CB6943F08053CB61CB6934
:1009180003F080530193019B0125174E3368DA05D4
:100928002CD5E368012B39D10B6A43F001030B6224
:10093800FFF7A2FE022607464FF0010841F2883968
:1009480096FAA6F396FAA6F30A6A96FAA6F3B3FA03
:1009580083F308FA03F3134252D0002D3FF4A5AEF7
:10096800CB6923F08053CB619FE60025D5E700BF14
:10097800001002402081901000700040336843F45A
:1009880080733360FFF778FE07463368DB05C8D409
:10099800FFF772FEC01B6428F7D9D4E613BB0B6AB5
:1009A80023F001030B620B6A23F004030B62FFF7C9
:1009B80063FE022607464FF0010841F2883996FA8D
:1009C800A6F396FAA6F30A6A96FAA6F3B3FA83F39D
:1009D80008FA03F31342C0D0FFF74EFEC01B484588
:1009E800EDD9B0E6052B0B6A03D143F004030B6283
:1009F8009AE723F001030B620B6A23F0040396E7DE
:100A0800FFF73AFEC01B48459AD99CE63F494B6818
:100A180003F00C03082B3FF46DAE022A4FF08073ED
:100A280050D193FAA3F3B3FA83F303F1845303F594
:100A380084139B0000221A60FFF71EFEDFF8D080A7
:100A480006464FF00077012597FAA7F30A6897FA48
:100A5800A7F3B3FA83F305FA03F313422CD1D4E9CD
:100A680008034A68034322F4741213434B604FF09F
:100A7800807393FAA3F3B3FA83F303F1845303F572
:100A880084139B00224F1D60FFF7F6FD4FF00075A1
:100A98000446012695FAA5F30A6895FAA5F3B3FA70
:100AA80083F306FA03F313427FF403AEFFF7E4FD82
:100AB800001BB842EED946E6FFF7DEFD831B43452F
:100AC800C2D940E693FAA3F3B3FA83F303F184534C
:100AD80003F584139B0000221A60FFF7CDFD0C4F2D
:100AE80004464FF00075012695FAA5F30A6895FAB1
:100AF800A5F3B3FA83F306FA03F313423FF4D9AD2F
:100B0800FFF7BAFD001BB842EED91CE60010024000
:100B1800400D03004D4AF8B5136803F007038B42F4
:100B2800044611D3226895071AD4D00720D4474A1F
:100B3800136803F007038B426CD82268510774D4FA
:100B480013077AD400200AE0136823F007030B4345
:100B58001360136803F007038B42E3D00120F8BD4C
:100B68003B48A568436823F0F0032B434360DCE768
:100B78006268374D012A25D14FF4003393FAA3F068
:100B8800286893FAA3F3B3FA83F302FA03F3034250
:100B9800E4D06B6823F0030313436B60FFF76CFD2D
:100BA8006368012B064641F288371CD16B6803F055
:100BB8000C03042BBBD0FFF75FFD801BB842F5D9AF
:100BC8000320CCE7022A0CBF4FF00073022393FAEC
:100BD800A3F02E6893FAA3F30120B3FA83F300FA83
:100BE80003F33342D4E7022B0FD16B6803F00C03F5
:100BF800082B9CD0FFF740FD801BB842F5D9DFE7F2
:100C0800FFF73AFD801BB842DAD86B6813F00C0F77
:100C1800F6D18CE7136823F007030B4313601368BE
:100C280003F007038B4299D187E70949E0684B68CD
:100C380023F4E06303434B6082E7054A2169536864
:100C480023F4605343EAC10353607BE7002002406A
:100C5800001002402DE9F74FDFF868815A4C002355
:100C68004FF00F090A6832FA03F502D103B0BDE864
:100C7800F08F012505FA03FA1AEA020200F09880BB
:100C88004D6825F0100EBEF1020F11D1DF0800EB00
:100C9800870703F0070C3E6A4FEA8C0C09FA0CFB35
:100CA80026EA0B0B0E6906FA0CF646EA0B063E62BC
:100CB800D0F800B04FEA430C032606FA0CF72BEAEB
:100CC800070BFE4305F0030707FA0CF70EF1FF3E8A
:100CD80047EA0B07BEF1010F076010D8876806EADC
:100CE800070ECF6807FA0CF747EA0E0787604768D0
:100CF80027EA0A0E2F099F4047EA0E074760C76890
:100D080037408E6806FA0CF63E43C660EE004FD5B3
:100D1800D8F8186046F00106C8F81860D8F81860C6
:100D280023F0030707F1804706F0010607F580372F
:100D3800019603F0030C019EBE684FEA8C0C09FA79
:100D48000CFEB0F1904F26EA0E0E33D01F4EB04283
:100D580032D006F58066B04230D006F58066B042E3
:100D68002ED006F58066B04214BF0526042606FA82
:100D78000CF646EA0E06BE602668D74315F4803F97
:100D88000CBF3E4016432660666815F4003F0CBF52
:100D98003E4016436660A66815F4801F0CBF3E40AF
:100DA8001643A660E668AD0254BF3E401643E660AF
:100DB800013357E70026DAE70126D8E70226D6E707
:100DC8000326D4E700100240000401400004004854
:100DD8000AB18161704781627047000002688368C8
:100DE800C16930B5056914682B43456924F4164474
:100DF8002B4324F00C040B43234313605368C4684B
:100E0800056A23F44053234353609468836924F4A8
:100E180030642B4323439360424B9A4211D103F52C
:100E280058431B6B03F00303022B5FD0032B65D0E1
:100E3800B1F5004F41684FEA510345D003F5E1038E
:100E480048E0394B9A4212D103F5E6331B6B03F4A1
:100E58004033B3F5003F49D0EAD9B3F5403F4DD010
:100E6800B1F5004F4FF001005BD1002353E02F4B49
:100E78009A420BD103F5E4331B6B03F44023B3F51B
:100E8800002F33D0D4D9B3F5402FE8E7284B9A4246
:100E98000BD103F5E2331B6B03F44013B3F5001FCA
:100EA80024D0C5D9B3F5401FD9E7224B9A42D7D1F0
:100EB80003F5E0331B6B03F44003B3F5000F15D0C3
:100EC800B6D9B3F5400FCAE703F561031FE04B0835
:100ED80003F50043B3FBF1F39BB2D360002020E09D
:100EE8004B0803F5740303F51053F3E7B1F5004F0E
:100EF8004168ECD14B0803F5803308E0B1F5004FA9
:100F08004168EDD14B0803F1F47303F59043B3FB4B
:100F1800F1F300209BB223F00F01C3F342030B430C
:100F2800D36030BD00380140004400400048004014
:100F3800004C0040005000402DE9F041DDF81880D9
:100F4800044616461F462568EB6931EA03030CBFC1
:100F580001230023B34201D0002016E0B8F1FF3F7F
:100F6800F2D0B8F1000F12D12B6823F4D0732B60A4
:100F7800AB6823F00103AB60202384F8693084F860
:100F88006A30002384F868300320BDE8F081FFF759
:100F980073FBC01B4045D6D9E6E773B5044600216C
:100FA800C166FFF769FB266833681A07054616D439
:100FB80033685B070AD56FF07E43009300222B4607
:100FC8004FF480012046FFF7B7FFA0B92023002087
:100FD80084F8693084F8680084F86A300CE06FF0AF
:100FE8007E4300930A4603464FF400112046FFF75C
:100FF800A3FF0028DCD0032002B070BD38B504463A
:1010080020B390F8693003F0FF020BB980F868202C
:101018002568242384F869302B6823F001032B60AA
:101028002046FFF7DBFE012810D06B6823F49043BD
:101038006B60AB6823F02A03AB602B6843F00103B5
:101048002B602046BDE83840FFF7A7BF012038BD18
:10105800F7B51E4690F86930202B0D460446114618
:101068004AD1002D46D0002A44D090F86830012B90
:1010780042D0012380F868300023C366212380F81A
:101088006930FFF7F9FAA4F850100746A4F852108F
:10109800B4F8522092B262B900963B4640212046ED
:1010A800FFF74AFF98B9202384F8693084F868006C
:1010B8000EE0B4F85220013A92B2A4F852203B460E
:1010C8000096002280212046FFF736FF10B103204A
:1010D80003B0F0BDA3682268B3F5805F07D1236928
:1010E8002BB935F8023BC3F308031385D0E715F88D
:1010F800013BFAE70120EBE70220E9E72DE9F3419C
:101108001E4690F86A30202B0D46044611465CD1E5
:10111800002D58D0002A56D090F86830012B54D0B2
:10112800012380F8683003684FF0FF321A62002309
:10113800C366222380F86A30FFF79EFAA368A4F8F2
:101148005810B3F5805F8046A4F85A1015D123696A
:101158008BB940F2FF13A4F85C30B4F85C70B4F8B3
:101168005A0080B280B9202384F86A3084F8680075
:1011780002B0BDE8F081FF23EDE7002BEDD1236934
:10118800002BF8D07F23E6E7B4F85A20013A92B250
:10119800A4F85A2043460096002220212046FFF753
:1011A800CBFEA0B9A2682368B2F5805F06D1226998
:1011B80022B99B8C3B4025F8023BD0E79B8C3B40F7
:1011C80005F8013BCBE70120D2E70220D0E7032056
:1011D800CEE70000002103E00B4B5B58435004317D
:1011E8000A480B4B42189A42F6D30A4A02E00023F7
:1011F80013600432084B9A42F9D3AFF3008000F031
:101208000FF8FFF715F8FEE7A0120008000000200D
:10121800000000200000002098010020FEE70000E8
:1012280070B50D4D0D4C641BA4100026A64209D1C3
:101238000B4D0C4C00F018F8641BA4100026A642B5
:1012480005D170BD55F8043B98470136EEE755F8CF
:10125800043B98470136F2E79812000898120008F4
:10126800981200089C120008F8B500BFF8BC08BC2A
:101278009E467047F8B500BFF8BC08BC9E4670474C
:1012880030313233343536373839414243444546B4
:04129800F101000858
:04129C00C90100087C
:04000005080011DD01
:00000001FF
