:020000040800F2
:100000000010002099140008E1140008E114000811
:10001000E1140008E1140008E114000800000000E9
:10002000000000000000000000000000E1140008D3
:10003000E114000800000000E1140008E1140008C9
:1000400000000000000000000000000000000000B0
:1000500000000000000000000000000000000000A0
:100060000000000000000000000000000000000090
:100070000000000000000000000000000000000080
:100080000000000000000000000000000000000070
:100090000000000000000000000000000000000060
:1000A0000000000000000000000000000000000050
:1000B0000000000000000000000000000000000040
:1000C0000000000000000000000000000000000030
:1000D0000000000000000000000000000000000020
:1000E0000000000000000000000000000000000010
:1000F0000000000000000000000000000000000000
:1001000000000000000000000000000000000000EF
:1001100000000000000000000000000000000000DF
:1001200000000000000000000000000000000000CF
:1001300000000000000000000000000000000000BF
:1001400000000000000000000000000000000000AF
:10015000000000000000000000000000000000009F
:10016000000000000000000000000000000000008F
:10017000000000000000000000000000000000007F
:08018000000000000000000077
:1001880002B4714649084900095C49008E4402BC22
:100198007047C046002243088B4274D303098B4240
:1001A8005FD3030A8B4244D3030B8B4228D3030C3F
:1001B8008B420DD3FF22090212BA030C8B4202D3E1
:1001C8001212090265D0030B8B4219D300E0090A09
:1001D800C30B8B4201D3CB03C01A5241830B8B4212
:1001E80001D38B03C01A5241430B8B4201D34B03FB
:1001F800C01A5241030B8B4201D30B03C01A524160
:10020800C30A8B4201D3CB02C01A5241830A8B42E4
:1002180001D38B02C01A5241430A8B4201D34B02CD
:10022800C01A5241030A8B4201D30B02C01A524131
:10023800CDD2C3098B4201D3CB01C01A52418309E5
:100248008B4201D38B01C01A524143098B4201D31F
:100258004B01C01A524103098B4201D30B01C01A4A
:100268005241C3088B4201D3CB00C01A52418308C4
:100278008B4201D38B00C01A524143088B4201D3F1
:100288004B00C01A5241411A00D201465241104651
:100298007047FFE701B5002000F006F802BDC04630
:1002A8000029F7D076E770477047C0460448054BE9
:1002B80010B5834203D0044B002B00D0984710BDE3
:1002C800140200201402002000000000064807491C
:1002D800091A8B10C90FC91810B5491003D0044B5F
:1002E800002B00D0984710BD1402002014020020F3
:1002F8000000000010B5074C2378002B09D1FFF748
:10030800D5FF054B002B02D0044800E000BF0123B5
:10031800237010BD540400200000000040150008A0
:10032800054B10B5002B03D00449054800E000BF79
:10033800FFF7CCFF10BDC0460000000058040020A5
:100348004015000800207047437801781B02034AD3
:100358000B435BBA002013807047C04600000020A2
:1003680010B501F094F8002010BD10B501F085F823
:10037800002010BD10B5040001F087F800F048FA1D
:10038800200001F07EF800F04BFA200001F07EF822
:1003980022001021722000F0D5F8002010BD0000C6
:1003A80070B50400002501F070F80B4B1B88AB42B8
:1003B80009D8200001F06AF822001021722000F00C
:1003C800C1F8002070BD00F023FA200001F059F8B0
:1003D800013500F025FAE8E7000000201FB51022DB
:1003E8001949684601F09EF800F066F900F090F9A6
:1003F80000F0CEF901F040F8684601F03EF800F050
:1004080089F81021114A6B2000F07EF81021104A5B
:10041800702000F079F800210E4A782000F074F876
:10042800012312210C4A6D2000F056F802210B4AD4
:10043800732000F069F810216620094A00F064F87A
:1004480000F0D2F8FCE7C0466B15000873030008FB
:100458007D0300084D0300086903000851030008E4
:10046800A90300080120704770B51400A31A984228
:1004780001DC00201FE04D780B782E00303EF6B2EC
:10048800092E0CD826701D00303DEDB2092D15D867
:1004980023782D012B43237002310134E6E72E0027
:1004A800413E052E02D8373D2570ECE72E00613E0F
:1004B800052E01D9012070BD573DF5E71D00413DCE
:1004C800052D03D8373B25781B01E3E71D00613D67
:1004D800052DEFD8573BF6E7F0B5094F06003D6804
:1004E80001200F2D0BDCFF2909D8064C28010655E1
:1004F8002018416082600373002001353D60F0BD23
:10050800140200201802002010B50023FFF7E4FFB2
:1005180010BD000010B50021074A7620FFF7F4FF50
:100528000021064A7720FFF7EFFF00217920044ACF
:10053800FFF7EAFF10BDC0466D040008A1050008DA
:1005480085050008F8B50D0014000F2700F088F99C
:100558006519AC4203D10A2000F082F9F8BD23786E
:10056800054E1B09F05C00F07BF9237801343B4011
:10057800F05C00F075F9ECE75815000807B56B4614
:10058800DA1D044B72201B6801211370FFF7DAFF94
:1005980000200EBD140200200322114B9446186857
:1005A8000023F0B50F4C8DB0C6B2B34209DB6146EB
:1005B80041436A467220C9B2FFF7C4FF00200DB05C
:1005C800F0BD654669465D431A01175DA2184F558F
:1005D8005768127B6D4401336F70AA70DBB2E4E791
:1005E8001402002018020020F0B500252F4CA54465
:1005F80000F01EF92E4B2F491A68AA4245DC40D05C
:1006080001272C4C2D016619337B3B421AD000235D
:100618006A46137200F00CF984226B4652009B184C
:10062800187000F005F90A226B46FF329B18187003
:1006380002AA380042A9FFF717FF002821D16B460C
:100648001B7A7360002663195B685B00B34222D88B
:1006580000F0EEF80A2801D00D2812D16419656857
:1006680002AA280042A9FFF7FFFE002809D1E9B233
:10067800A36802A8984701AA107001217A20FFF701
:1006880061FFC3239B009D44F0BD2C010C5D844297
:10069800B6D00135B1E700F0CBF80A28F1D00D2823
:1006A800EFD042ABF0540136CDE7C046F4FCFFFF73
:1006B8001402002018020020F0B59027002401251C
:1006C8000326042397B0FF05380005A9059306956E
:1006D8000794089600F042FB102305A938000593FB
:1006E80006950794089600F039FB05230AA80B9392
:1006F8000A960D94139400F0C9F80723210001A865
:10070800019302950394049400F09EFA17B0F0BD8B
:10071800802270B51B4C9202636988B013436361F1
:100728006369902013400193019BC023DB000125DE
:1007380003260393022303A9C0050493059507958F
:10074800069600F00BFB8022A369D2011343A36134
:10075800A3690D4813400293029B236BB3431D43C7
:100768000A4B2563036096231B02436000238360C2
:10077800C360036183610C33436100F059FC08B026
:1007880070BDC04600100240180300200038014028
:1007980080211E4BF0B55A6989020A435A615B6988
:1007A80087B00B4090240093012500260327009B67
:1007B8008023E405200001A901930295039604977C
:1007C80000F0CCFA1023200001A9019302950396AA
:1007D800049700F0C3FA0423200001A901930295AD
:1007E8000396049700F0BAFA32002000802100F046
:1007F80067FB2A002000102100F062FB2A00042178
:10080800200000F05DFB07B0F0BDC04600100240BC
:10081800902010B501228021C00500F051FB10BDC9
:10082800902010B500228021C00500F049FB10BDC2
:1008380037B508246B46DD1D0122322329000648FE
:1008480000F028FC002801D128783EBD034A136A2D
:1008580023431362EEE7C046180300200038014026
:1008680007B56B46D91D087001220248024B00F0FB
:1008780087FC07BD1803002088130000024B186886
:10088800421C1A607047C04688030020F0B5036810
:10089800040085B0DB072FD423689B0700D581E0CF
:1008A80023681B0700D5BCE023685B0700D5DFE0A1
:1008B8002368DB061AD562690423B44D012A00D0E7
:1008C80048E1696B02270B436B636B6B1A436A63DE
:1008D800FFF7D4FF06006B6B3B4200D133E1F821F0
:1008E8006A6BA3698A43DB0013436B63216A00299F
:1008F80000D057E100202AE00C22A44D6B68134079
:10090800042B06D06B681340082B0AD16B68DB03F5
:1009180007D52B689B03BFD56368002BBCD101208A
:1009280015E06368012B14D180232A685B02134306
:100938002B60FFF7A3FF80270600BF022B683B420E
:10094800AAD1FFF79BFF801B6428F7D9032005B0C5
:10095800F0BD002B16D12B688D4A802713402B60E1
:100968002B688C4ABF0213402B60FFF787FF0600F5
:100978002B683B4200D18FE7FFF780FF801B64287C
:10098800F6D9E3E7052B05D180232A68DB02134358
:100998002B60C9E72B687E4A13402B602B687D4A81
:1009A8001340C5E70C22794D6B68134206D06B687B
:1009B8001340082B10D16B68DB030DD42B689B0701
:1009C80002D5E368012BAAD1F8212A6823698A4352
:1009D800DB0013432B6063E7E2680123002A0FD092
:1009E8002A68022713432B60FFF748FF06002B688D
:1009F8003B42E9D1FFF742FF801B0228F7D9A5E760
:100A08002A6802279A432A60FFF738FF06002B68F6
:100A18003B4200D144E7FFF731FF801B0228F6D99B
:100A280094E7E2690123594D002A10D06A6A022727
:100A380013436B62FFF722FF06006B6A3B4200D04C
:100A480032E7FFF71BFF801B0228F6D97EE76A6AA8
:100A580002279A436A62FFF711FF06006B6A3B425E
:100A680000D121E7FFF70AFF801B0228F6D96DE7BE
:100A780080220021454D5205EB690091134208D1AF
:100A8800EB691343EB61EB6913400393039B012369
:100A980000938027404E7F0033683B4215D0A368FF
:100AA800012B22D12A6A13432B62FFF7E7FE0227A4
:100AB80006002B6A3B423FD0009B012B00D0F7E693
:100AC800EB69364A1340EB61F2E633683B43336027
:100AD800FFF7D4FE019033683B42E0D1FFF7CEFE2A
:100AE800019BC01A6428F6D930E70122002B14D1E3
:100AF8002B6A022793432B622B6A033293432B62A0
:100B0800FFF7BCFE06002B6A3B42D5D0FFF7B6FEC6
:100B1800234B801B9842F6D918E7052B05D1296A83
:100B2800013B0B432B622B6ABDE72B6A93430422DC
:100B38002B622B6A9343B7E7FFF7A0FE184B801B85
:100B48009842B6D902E7FFF799FE801B022800D821
:100B5800C1E6FBE6053203D16A6B9A436A63BEE6D7
:100B68006A6B0227134301226B636B6B93436B63BE
:100B7800FFF784FE06006B6B3B4200D1B6E6FFF739
:100B88007DFE801B0228F6D9E0E6C0460010024030
:100B9800FFFFFEFFFFFFFBFF00700040FFFFFFEFBE
:100BA800881300000C22254D6B681340082B00D1D8
:100BB800B5E62B68224A13402B6002292FD1FFF794
:100BC8005DFE80270600BF042B683B4221D10F221F
:100BD800EB6A80269343E26AB6041343EB62616AC8
:100BE800A36A6A680B4317490A4013436B60802362
:100BF8002A685B0413432B60FFF740FE04002B6850
:100C0800334200D076E6FFF739FE001B0228F6D9FA
:100C18009CE6FFF733FE801B0228D5D996E6FFF73E
:100C28002DFE80260400B6042B68334200D161E60D
:100C3800FFF724FE001B0228F6D987E600100240C1
:100C4800FFFFFFFEFFFFC2FFF7B501223E4D040084
:100C58002B680F0013408B4212D32268930719D4D4
:100C6800D2071FD401232A681A40BA425DD82368E4
:100C78005B0761D4E122354BD20300201A6008E0FB
:100C88002B6893430B432B602B6813408B42E4D0B3
:100C98000120FEBDF0202E494B688343A068034322
:100CA8004B60DDE72A4E62683368012A1AD19B033C
:100CB800EED5032173688B4313437360FFF7DEFDA2
:100CC80063680190012B15D10C2273681340042B23
:100CD800C8D0FFF7D3FD019BC01A1E4B9842F3D929
:100CE8000320D6E7022A02D19B01E2D4D0E79B0772
:100CF800DFD4CDE7022B12D00C2273681342B1D097
:100D0800FFF7BCFD019BC01A124B9842F4D9E7E7E4
:100D1800FFF7B4FD019BC01A0E4B9842E0D80C2295
:100D280073681340082BF3D19CE72A689A432A601A
:100D38002A681A429BD0ABE7054A074953680B401B
:100D4800E1680B43536095E700200240040000204F
:100D58000010024088130000FFF8FFFF0023F0B5E1
:100D680087B00A681400DC4001D107B0F0BD012645
:100D780014009E4034400294324200D192E04A6806
:100D880015000192102295430395022D0FD10724D7
:100D98000F251C40A400A540DA0892008218176AA3
:100DA800AF43BC460F69A740644627431762032236
:100DB8005C00A240D543AC46032507689743019AD7
:100DC8002A40A240039D3A43013D0260012D0DD8FF
:100DD800624685681540CA68A2402A438260019A23
:100DE800456812099A40B5432A4342606246C5687D
:100DF80015408A68A24080242A43C260019A64058B
:100E080022424FD00125284A90279469FF052C4398
:100E1800946192699C082A400592059A234AA40085
:100E2800A4180F2202351D40AD00AA40A6689643BB
:100E38000022B8420CD01E4F0132B84208D01D4FD4
:100E48000132B84204D01C4F0332B84200D1023AF2
:100E5800AA403243A260194A029C1668029D019F6B
:100E6800E4433543FF0301D4350025401560566837
:100E7800029D019F3543BF0301D4350025405560CD
:100E88009668029D019F3543FF0201D43500254035
:100E98009560D568029E019F2E43BF0201D425406C
:100EA8002E00D66001335CE70010024000000140CC
:100EB8000004004800080048000C004800040140F5
:100EC800002A01D0816170478162FCE7F7B5040010
:100ED8000E00170001932568EB6933409B1B5A42AB
:100EE8005341BB4201D0002017E0089B0133F3D0E7
:100EF800089B002B12D12B680C4A032013402B604F
:100F0800AB68A332FF3293432200AB6020236932DF
:100F180013705370002368342370FEBDFFF7AEFCD6
:100F2800019BC01A089B9842D5D9E4E75FFEFFFFF2
:100F3800030070B59A681D6904682A435D69C16930
:100F48002A432068334D0A432840024322606268DE
:100F580031481D6A0240D868024362609A69A068F5
:100F68002A432E4D2840024303208025A2602C4AA4
:100F78002D02126B0240013A022A37D82948805CB8
:100F8800A94214D108280FD8FFF7FAF8320E050E37
:100F9800320E0E0E09005968234B48082CE0596898
:100FA800802348085B0227E00120002329E0082865
:100FB8001AD8FFF7E5F80F1905190F1919191400B0
:100FC80059681A4B4808C018FFF7E4F880B2E06087
:100FD80000201DE05968E1234808DB03F3E759685E
:100FE800802348081B02EEE7012011E0A942F1D155
:100FF8005968E12348081B04C018FFF7CBF883B2EF
:10100800002019000F221B0791435B0F0B43E3607D
:1010180070BDC046F369FFFFFFCFFFFFFFF4FFFF7E
:1010280000100240681500080048E8010024F40098
:10103800F8B5041E01D10120F8BD060069363378E1
:10104800DAB2002B02D1030068331A702423012777
:101058003370256820002B68BB432B60FFF768FFBF
:10106800B842E8D06B680A4A0020134008226B6037
:10107800AB689343AB602B6822001F4320232F608B
:101088006A32E0666834337013702070D4E7C04663
:10109800FFF7FFFFF0B585B0039303006A3316002E
:1010A8001A7804000D000220202A3BD101380029BB
:1010B80038D0002E36D08022A1685201914204D146
:1010C8002269002A01D105422CD122006832117808
:1010D8000220012926D0012111700022E266223265
:1010E8001A70FFF7CBFB23008021A26858331E80BB
:1010F8005E800290490104338A4217D12269002A8E
:1011080012D11E4A1A8080271E887F0122005A3277
:10111800138898B2002B10D1230020226A33683438
:101128001A70207005B0F0BDFF22EBE7002AEAD163
:101138002269002AF8D07F22E4E713882021013BA6
:101148009BB21380039B002200932000029BFFF7B1
:10115800BDFE002810D1A2682368BA4207D12269CF
:10116800002A04D19B8C33402B800235CEE79B8C20
:1011780033402B700135C9E70320D3E7FF01000096
:10118800F0B5070085B0039369373B7804000D007C
:1011980016000220202B46D10138002943D0002A0E
:1011A80041D08023A2685B019A4204D12369002BB5
:1011B80001D1014237D1230068331A780220012A6D
:1011C80031D001221A700023E36621333B70FFF708
:1011D80055FB230050331E805E80802602907601E6
:1011E800210052310B889AB2002B0DD1039B40216C
:1011F80000932000029BFFF769FE002812D12023EC
:1012080068343B7020700EE00B880022013B9BB2D3
:101218000B80039B802100932000029BFFF756FE62
:10122800002802D0032005B0F0BDA3682268B342AD
:1012380008D12369002B05D12B880235DB05DB0D8E
:101248001385CDE72B7801351385C9E7214BF7B511
:101258001B68214D19002A00103118781070587831
:10126800507098789070D8780433D07004328B42DC
:10127800F3D10426290001AC042220000C3100F02F
:1012880051F903231E4210D1144B2178E07862787B
:10129800A7789A5CDF5D185C5B5CB108E370104B63
:1012A80067705B5CA070534023702B7822780136FE
:1012B80053402B7462786B7853406B74A278AB7888
:1012C8005340AB74E278EB7804355340EB732C2E23
:1012D800D0D1F7BD8C030020A40300201301002007
:1012E800080000200C4BF7B55B680C4E1F0000018E
:1012F80010371900002284190194019CA45C013262
:1013080025000C7865400D700131042AF5D10433AD
:101318000430BB42EDD1F7BD8C030020A4030020AC
:10132800084B30B55B68084C181D19001A001031BD
:101338001578655D157004328A42F9D1013383420C
:10134800F3D130BD8C030020130100200D4B5B68E6
:1013580059795A785970597A5971597B5A7359720F
:10136800997A9A789970997B9A729A799971D97BB6
:101378009A73DA78D970D97AD973D979DA71D97236
:101388007047C0468C03002002001B23C00940425E
:10139800184052005040C0B270470000F0B500201D
:1013A80087B0FFF79FFF0125FFF7BAFFFFF7CEFFD2
:1013B800224B5C6823001033059323786678180065
:1013C8000193A37870400293E3780393039A029BF6
:1013D80053401F0004934740FFF7D6FF019B584036
:1013E8007840207002987040FFF7CEFF46407E405C
:1013F80066700498FFF7C8FF029B58407840039B2B
:10140800A07001985840FFF7BFFF039B5840474022
:10141800059BE7700434A342CFD128000135EDB213
:10142800FFF760FF0A2DBFD1FFF77AFFFFF78EFFA6
:101438002800FFF757FF07B0F0BDC0468C03002017
:101448000023CA5CC2540133102BFAD17047000044
:1014580010B5024B1860FFF7F9FE10BD8C03002091
:10146800010010B5034841600830FFF7E9FFFFF7B6
:1014780095FF10BD8C030020704710B5FFF7E8FFFB
:1014880010BD10B5FFF7ECFF10BD704770477047EF
:10149800002103E00B4B5B58435004310A480B4BC7
:1014A80042189A42F6D30A4A02E000231360043233
:1014B800084B9A42F9D300E000BF00F00FF8FEF79E
:1014C8008DFFFEE7841500080000002014020020AC
:1014D8001402002070040020FEE7000070B500260A
:1014E8000C4C0D4D641BA410A64209D1002600F037
:1014F80023F80A4C0A4D641BA410A64205D170BDFE
:10150800B300EB5898470136EEE7B300EB5898471D
:101518000136F2E77C1500087C15000880150008E4
:101528007C150008002310B59A4200D110BDCC5C90
:10153800C4540133F8E70000F8B5C046F8BC08BC4D
:101548009E467047F8B5C046F8BC08BC9E46704732
:1015580030313233343536373839414243444546E1
:101568000408022B7E151628AED2A6ABF7158809FB
:04157800CF4F3C0015
:04157C002903000837
:04158000FD02000860
:101584000A00000000127A008D01020408102040B5
:10159400801B3652096AD53036A538BF40A39E81D8
:1015A400F3D7FB7CE339829B2FFF87348E4344C4FB
:1015B400DEE9CB547B9432A6C2233DEE4C950B421C
:1015C400FAC34E082EA16628D924B2765BA2496DCF
:1015D4008BD12572F8F66486689816D4A45CCC5D29
:1015E40065B6926C704850FDEDB9DA5E154657A7A2
:1015F4008D9D8490D8AB008CBCD30AF7E45805B811
:10160400B34506D02C1E8FCA3F0F02C1AFBD0301E4
:10161400138A6B3A9111414F67DCEA97F2CFCEF00F
:10162400B4E67396AC7422E7AD3585E2F937E81C6D
:1016340075DF6E47F11A711D29C5896FB7620EAA4D
:1016440018BE1BFC563E4BC6D279209ADBC0FE78EE
:10165400CD5AF41FDDA8338807C731B112105927BA
:1016640080EC5F60517FA919B54A0D2DE57A9F93EF
:10167400C99CEFA0E03B4DAE2AF5B0C8EBBB3C8360
:10168400539961172B047EBA77D626E16914635502
:10169400210C7D637C777BF26B6FC53001672BFE79
:1016A400D7AB76CA82C97DFA5947F0ADD4A2AF9CB4
:1016B400A472C0B7FD9326363FF7CC34A5E5F1718B
:1016C400D8311504C723C31896059A071280E2EB94
:1016D40027B27509832C1A1B6E5AA0523BD6B32924
:1016E400E32F8453D100ED20FCB15B6ACBBE394AB1
:1016F4004C58CFD0EFAAFB434D338545F9027F50B8
:101704003C9FA851A3408F929D38F5BCB6DA2110B6
:10171400FFF3D2CD0C13EC5F974417C4A77E3D644E
:101724005D197360814FDC222A908846EEB814DE7E
:101734005E0BDBE0323A0A4906245CC2D3AC629108
:1017440095E479E7C8376D8DD54EA96C56F4EA65F2
:101754007AAE08BA78252E1CA6B4C6E8DD741F4BF1
:10176400BD8B8A703EB5664803F60E613557B9865F
:10177400C11D9EE1F8981169D98E949B1E87E9CE0C
:101784005528DF8CA1890DBFE6426841992D0FB021
:0417940054BB16002C
:040000050800149942
:00000001FF
